:020000040000FA
:0400000007EF00F016
:100008006682A6ED08F098EF0DF0D38CD38AD398CA
:10001800000E596E000E586E000E656EB40E646EBA
:10002800000E636E780E626E000E0001CD6F010E39
:10003800CC6F000E516E000E506E000E9F6F000EBA
:100048009E6F000E9D6F000E9C6F000EAF6F000E2E
:10005800AE6F000EB36F000EB26F000EB16F000EE0
:10006800B06FD9EC0DF026EC0EF0000E0C6E000E01
:100078000B6E39EC0DF09392939493969498949A0E
:10008800949C92969298929A8A928A948A968B983D
:100098008B9A8B9C89968998899A000E4D6E000ED2
:1000A8004C6E000E4B6E010E4A6E000E496E000E2D
:1000B800486E000E0001A16F000EA06F948E939AF7
:1000C8009592F19E800ECD6E9E90000ECF6E000E22
:1000D800CE6E000E9D6F780E9C6F000E9B6F000E0B
:1000E8009A6F1BEC0EF0000E0001A76F010EA66FB1
:1000F80094968B96000E416E000E406E0BEC0EF03F
:10010800000E0C6E000E0B6EB9EC0DF04FEF02F006
:10011800545056243A6E555057203B6E52503A244C
:100128000B6E53503B200C6E000E0E6E030E0D6EC0
:1001380057EC0CF00BC0B4F00CC0B5F056500001F1
:10014800B45DB551800A3A6E5750800A3A58D8B013
:10015800B0EF00F0B2EF00F0D6EF00F0B451545C0D
:100168005550800A3A6EB551800A3A58D8B0BFEF58
:1001780000F0C1EF00F0D6EF00F0B451525C5350DC
:10018800800A3A6EB551800A3A58D8B0CEEF00F0DE
:10019800D0EF00F0D6EF00F0000EAF6F010EAE6F9B
:1001A8005AEF01F0B451565C5750800A3A6EB55177
:1001B800800A3A58D8B0E3EF00F0E5EF00F016EF08
:1001C80001F05450B45DB551800A3A6E5550800A1A
:1001D8003A58D8B0F2EF00F0F4EF00F016EF01F063
:1001E800B451525C5350800A3A6EB551800A3A585D
:1001F800D8B001EF01F003EF01F016EF01F0AE0502
:10020800AF11D8A40AEF01F00CEF01F016EF01F0DE
:10021800000EAF6F000EAE6F000EB36F010EB26F1F
:100228005AEF01F0B451565C5750800A3A6EB551F6
:10023800800A3A58D8B023EF01F025EF01F05AEFC1
:1002480001F0B451545C5550800A3A6EB551800A99
:100258003A58D8B032EF01F034EF01F05AEF01F01C
:100268005250B45DB551800A3A6E5350800A3A58DC
:10027800D8B041EF01F043EF01F05AEF01F0B205B9
:10028800B311D8A44AEF01F04CEF01F05AEF01F096
:10029800000EB36F000EB26F9A4B9B2B644A652A0F
:1002A8005AEF01F05AEF01F05AEF01F0B451565CE1
:1002B8005750800A3A6EB551800A3A58D8B067EF5D
:1002C80001F069EF01F08DEF01F0B451545C555025
:1002D800800A3A6EB551800A3A58D8B076EF01F0E4
:1002E80078EF01F08DEF01F05250B45DB551800AFE
:1002F8003A6E5350800A3A58D8B085EF01F087EF2C
:1003080001F08DEF01F0000EB16F010EB06F10EF2C
:1003180002F0B451565C5750800A3A6EB551800AC3
:100328003A58D8B09AEF01F09CEF01F0CDEF01F008
:100338005450B45DB551800A3A6E5550800A3A5807
:10034800D8B0A9EF01F0ABEF01F0CDEF01F0B45157
:10035800525C5350800A3A6EB551800A3A58D8B068
:10036800B8EF01F0BAEF01F0CDEF01F0B005B1112F
:10037800D8A4C1EF01F0C3EF01F0CDEF01F0000EFA
:10038800B16F000EB06F000EB36F010EB26F10EFB9
:1003980002F05650B45DB551800A3A6E5750800A43
:1003A8003A58D8B0DAEF01F0DCEF01F010EF02F0C4
:1003B800B451545C5550800A3A6EB551800A3A5887
:1003C800D8B0E9EF01F0EBEF01F010EF02F0B45113
:1003D800525C5350800A3A6EB551800A3A58D8B0E8
:1003E800F8EF01F0FAEF01F010EF02F0B205B311E7
:1003F800D8A401EF02F003EF02F010EF02F0000EB4
:10040800B36F000EB26F6406D8A0650610EF02F055
:1004180010EF02F010EF02F0E80E6424136E030EE2
:100428006520146ED9EC0AF057BE24EF02F057503D
:1004380009E1810E565CD8A024EF02F026EF02F005
:1004480049EF02F055BE32EF02F0810E545C010E06
:100458005558D8A032EF02F034EF02F049EF02F01D
:1004680053BE40EF02F0810E525C010E5358D8A0E3
:1004780040EF02F042EF02F049EF02F0000E0001F7
:10048800A76F000EA66F49EF02F0060EE82EFED702
:1004980000D04FEF02F00001A651A711D8A457EFE2
:1004A80002F059EF02F08CEF00F05BEF02F0060E5D
:1004B8003B6E130E3A6EAE0EE82EFED73A2EFCD7E0
:1004C8003B2EFAD7000E0001A96F010EA86F30EF7E
:1004D80004F0545056243A6E555057203B6E5250F3
:1004E8003A240B6E53503B200C6E000E0E6E030E1A
:1004F8000D6E57EC0CF00BC0B6F00CC0B7F05650B0
:100508000001B65DB751800A3A6E5750800A3A58D2
:10051800D8B091EF02F093EF02F0B7EF02F0B651C6
:10052800545C5550800A3A6EB751800A3A58D8B090
:10053800A0EF02F0A2EF02F0B7EF02F0B651525C62
:100548005350800A3A6EB751800A3A58D8B0AFEF84
:1005580002F0B1EF02F0B7EF02F0000EAF6F010E3C
:10056800AE6F3BEF03F0B651565C5750800A3A6EB7
:10057800B751800A3A58D8B0C4EF02F0C6EF02F07B
:10058800F7EF02F05450B65DB751800A3A6E5550F5
:10059800800A3A58D8B0D3EF02F0D5EF02F0F7EF5F
:1005A80002F0B651525C5350800A3A6EB751800A35
:1005B8003A58D8B0E2EF02F0E4EF02F0F7EF02F0B9
:1005C800AE05AF11D8A4EBEF02F0EDEF02F0F7EFB4
:1005D80002F0000EAF6F000EAE6F000EB36F010E8B
:1005E800B26F3BEF03F0B651565C5750800A3A6E33
:1005F800B751800A3A58D8B004EF03F006EF03F079
:100608003BEF03F0B651545C5550800A3A6EB7512F
:10061800800A3A58D8B013EF03F015EF03F03BEF18
:1006280003F05250B65DB751800A3A6E5350800AB3
:100638003A58D8B022EF03F024EF03F03BEF03F071
:10064800B205B311D8A42BEF03F02DEF03F03BEF65
:1006580003F0000EB36F000EB26F9A4B9B2B624AE9
:10066800632A3BEF03F03BEF03F03BEF03F0B65197
:10067800565C5750800A3A6EB751800A3A58D8B03B
:1006880048EF03F04AEF03F06EEF03F0B651545C05
:100698005550800A3A6EB751800A3A58D8B057EF89
:1006A80003F059EF03F06EEF03F05250B65DB75107
:1006B800800A3A6E5350800A3A58D8B066EF03F071
:1006C80068EF03F06EEF03F0000EB16F010EB06F2C
:1006D800F1EF03F0B651565C5750800A3A6EB751A5
:1006E800800A3A58D8B07BEF03F07DEF03F0AEEF05
:1006F80003F05450B65DB751800A3A6E5550800ADF
:100708003A58D8B08AEF03F08CEF03F0AEEF03F05D
:10071800B651525C5350800A3A6EB751800A3A5823
:10072800D8B099EF03F09BEF03F0AEEF03F0B005FC
:10073800B111D8A4A2EF03F0A4EF03F0AEEF03F0D9
:10074800000EB16F000EB06F000EB36F010EB26FE6
:10075800F1EF03F05650B65DB751800A3A6E575024
:10076800800A3A58D8B0BBEF03F0BDEF03F0F1EFC1
:1007780003F0B651545C5550800A3A6EB751800A5E
:100788003A58D8B0CAEF03F0CCEF03F0F1EF03F01A
:10079800B651525C5350800A3A6EB751800A3A58A3
:1007A800D8B0D9EF03F0DBEF03F0F1EF03F0B205B7
:1007B800B311D8A4E2EF03F0E4EF03F0F1EF03F094
:1007C800000EB36F000EB26F6206D8A06306F1EF99
:1007D80003F0F1EF03F0F1EF03F0D00E6224136E93
:1007E800070E6320146ED9EC0AF057BE05EF04F02B
:1007F800810E565C010E5758D8A005EF04F007EF9C
:1008080004F02AEF04F055BE13EF04F0810E545C97
:10081800010E5558D8A013EF04F015EF04F02AEF95
:1008280004F053BE21EF04F0810E525C010E5358C0
:10083800D8A021EF04F023EF04F02AEF04F0000E13
:100848000001A96F000EA86F2AEF04F0060EE82E2B
:10085800FED700D030EF04F00001A851A911D8A4A8
:1008680038EF04F03AEF04F06DEF02F03CEF04F0DB
:10087800000E0C6E010E0B6E39EC0DF0000E00012F
:10088800A36F000EA26F000EA56F000EA46F000EDE
:100898004F6E000E4E6E000EAD6F000EAC6F000E68
:1008A8005B6E780E5A6E7C0E0B6E000E0C6E000E90
:1008B8000D6E000E0E6E4BEC0EF03BEC0EF0000EC3
:1008C8000C6E000E0B6E72EC0DF06BEF04F04CB07A
:1008D80002D08A9201D08A824AB002D08A9401D08A
:1008E8008A8448B002D08A9601D08A864CB002D059
:1008F8008B9801D08B884AB002D08B9A01D08B8A12
:1009080048B002D08B9C01D08B8C4CB002D0899619
:1009180001D089864AB002D0899801D0898848B028
:1009280002D0899A01D0898A0001A04BA12B44ECFE
:100938000EF0A4EF04F00001A24BA32BA4EF04F0E7
:1009480082AEA9EF04F0ABEF04F09FEF04F0ADEF37
:1009580004F0000ECF6E000ECE6ECD80B9EF04F01D
:100968000001A44BA52BB9EF04F082BEBEEF04F042
:10097800C0EF04F0B4EF04F0C2EF04F000019A4BAA
:100988009B2BCECFAAF0CFCFABF0CD90ABBFD6EF9D
:1009980004F0AB5109E1190EAA5DD8A0D6EF04F016
:1009A800D8EF04F000EF05F0AAC00BF0ABC00CF0D4
:1009B800000E0CBEFF0E0D6E0E6E010EEBEC09F074
:1009C8000BC019F00CC01AF00DC01BF00EC01CF0C3
:1009D800000E1D6E000E1E6EEA0E1F6E420E206E79
:1009E80096EC06F019C094F01AC095F01BC096F06A
:1009F8001CC097F007EF05F0000ECF6E000ECE6E0C
:100A0800CD9007EF05F094C00BF095C00CF096C0A0
:100A18000DF097C00EF0000E0F6E000E106E200E37
:100A2800116E410E126EA3EC0BF0D8B01EEF05F05C
:100A380020EF05F032EF05F00001AC51AD11D8A45C
:100A480028EF05F02AEF05F032EF05F04E4A4F2A5D
:100A5800000EAD6F010EAC6F5DEF05F0000E0B6E72
:100A6800000E0C6E200E0D6E410E0E6E94C00FF02F
:100A780095C010F096C011F097C012F0A3EC0BF0DF
:100A8800D8B049EF05F04BEF05F05DEF05F0000138
:100A9800AC05AD11D8A453EF05F055EF05F05DEFA7
:100AA80005F0000EAD6F000EAC6F5DEF05F05DEF69
:100AB80005F0880E5A24136E130E5B20146ED9ECC1
:100AC8000AF064505A5C5B50800A3A6E6550800A9E
:100AD8003A58D8B072EF05F074EF05F085EF05F0DD
:100AE8005A50625C6350800A3A6E5B50800A3A58EA
:100AF800D8A081EF05F083EF05F0F6EF05F085EF5C
:100B080005F03DBE91EF05F03D5009E10A0E3C5C51
:100B1800D8A091EF05F093EF05F0F6EF05F06450DB
:100B28005A5C5B50800A3A6E6550800A3A58D8A0E1
:100B3800A0EF05F0A2EF05F0B8EF05F0000E4D6E3E
:100B4800010E4C6E000E4B6E000E4A6E000E496E82
:100B5800000E486E000E3F6E010E3E6E000E436E94
:100B6800140E426EDFEF05F05A50625C6350800A43
:100B78003A6E5B50800A3A58D8A0C5EF05F0C7EF27
:100B880005F0DFEF05F0000E4D6E000E4C6E000E06
:100B98004B6E000E4A6E000E496E010E486E000E36
:100BA8003F6E000E3E6E000E436E0A0E426EDFEF81
:100BB80005F0DFEF05F040504110D8A4E6EF05F04E
:100BC800E8EF05F032EF06F0000E416E010E406EC0
:100BD800000E0C6E010E0B6EB9EC0DF032EF06F044
:100BE80032EF06F064505A5C5B50800A3A6E6550EA
:100BF800800A3A58D8B003EF06F005EF06F032EF56
:100C080006F05A50625C6350800A3A6E5B50800A64
:100C18003A58D8B012EF06F014EF06F032EF06F0AB
:100C2800000E4D6E000E4C6E000E4B6E010E4A6E9D
:100C3800000E496E000E486E000E436E0F0E426E97
:100C4800000E416E000E406E000E0C6E000E0B6E14
:100C5800B9EC0DF032EF06F032EF06F046504710CF
:100C6800D8A439EF06F03BEF06F043EF06F0425008
:100C78004424446E43504520456E5CEF06F046041C
:100C88004710D8A44AEF06F04CEF06F05CEF06F0E8
:100C980042C03AF043C03BF03A1E3B1E3A4A3B2A58
:100CA80044503A24446E45503B20456E5CEF06F0B4
:100CB80045BE68EF06F0F50E445C010E4558D8A015
:100CC80068EF06F06AEF06F074EF06F0010E456E65
:100CD800F40E446E000E476E010E466E8AEF06F063
:100CE80045BE82EF06F0455007E10A0E445CD8B0D5
:100CF80080EF06F082EF06F08AEF06F0000E476EEE
:100D0800000E466E8AEF06F08AEF06F044C00BF03C
:100D180045C00CF072EC0DF06BEF04F06BEF04F0D3
:100D280007EF00F01C50800B296E1C501C24306EFD
:100D38001BAEA1EF06F0A3EF06F0A6EF06F0308099
:100D4800A6EF06F03050D8B4ACEF06F0AEEF06F0E0
:100D5800C5EF06F03028D8A4B4EF06F0B6EF06F0D9
:100D6800C0EF06F0000E196E000E1A6E000E1B6E14
:100D7800000E1C6EC0EF06F01B8E000E1C6ECFEF2F
:100D880006F0000E196E000E1A6E000E1B6E000E95
:100D98001C6ECFEF06F02050800B291A205020241B
:100DA800316E1FAEDAEF06F0DCEF06F0DFEF06F08B
:100DB8003180DFEF06F03150D8B4E5EF06F0E7EF09
:100DC80006F0FEEF06F03128D8A4EDEF06F0EFEFBD
:100DD80006F0F9EF06F0000E1D6E000E1E6E000EF6
:100DE8001F6E000E206EF9EF06F01F8E000E206EAB
:100DF80008EF07F0000E1D6E000E1E6E000E1F6E2F
:100E0800000E206E08EF07F01D501E101F10201056
:100E1800D8A411EF07F013EF07F02DEF07F0000E3D
:100E2800196E000E1A6E000E1B6E000E1C6E800EE0
:100E38001B127F0E1C1229501C1219C019F01AC05F
:100E48001AF01BC01BF01CC01CF0A5EF08F0A5EFA2
:100E580008F03050D8A433EF07F035EF07F049EF2A
:100E680007F0000E196E000E1A6E000E1B6E000EB3
:100E78001C6E19C019F01AC01AF01BC01BF01CC058
:100E88001CF0A5EF08F0A5EF08F03150216E226A9A
:100E9800211E221E214A222A3050236E246A215004
:100EA8002326225024227F0E23242A6E000E24207B
:100EB8002B6E19C025F01AC026F01BC027F01CC0E5
:100EC80028F0000E196E000E1A6E000E1B6E000E32
:100ED8001C6E000E2C6E000E2D6E000E2E6E000E77
:100EE8002F6E000E316EB5EF07F03150D8B47FEF9A
:100EF80007F081EF07F09AEF07F0D89025362636ED
:100F080027362836D89019361A361B361C362FAE97
:100F180090EF07F092EF07F093EF07F01980D89061
:100F28002C362D362E362F369AEF07F01D50255CBD
:100F38001E5026581F50275820502858D8A0A7EFD1
:100F480007F0A9EF07F0B4EF07F02F8C1D50255ECE
:100F58001E50265A1F50275A2050285AB4EF07F01F
:100F6800312A190E3164BBEF07F0BDEF07F079EFB6
:100F780007F0BFEF07F02550261027102810D8B427
:100F8800C8EF07F0CAEF07F0E6EF07F02C80E6EFAE
:100F980007F0E6EF07F0D89019361A361B361C36DC
:100FA8002FAED9EF07F0DBEF07F0DCEF07F0198081
:100FB800D8902C362D362E362F362A06D8A02B065A
:100FC800E6EF07F01BAEEBEF07F0EDEF07F0CFEF22
:100FD80007F0EFEF07F0000E316E2FAEF6EF07F0D7
:100FE800F8EF07F020EF08F0FF0E2C14216EFF0E2B
:100FF8002D14226EFF0E2E14236E7F0E2F14246ED6
:101008002150221023102410D8B40DEF08F00FEF50
:1010180008F013EF08F0010E316E20EF08F019A068
:1010280018EF08F01AEF08F020EF08F0010E316E03
:1010380020EF08F020EF08F03150D8B426EF08F080
:1010480028EF08F050EF08F0010E1926000E1A22BA
:101058001B221C221CA033EF08F035EF08F050EFDC
:1010680008F019C021F01AC022F01BC023F01CC0E0
:1010780024F02434243223322232213221C019F0C0
:1010880022C01AF023C01BF024C01CF02A4A2B2AC5
:1010980050EF08F050EF08F02BBE5BEF08F02B5034
:1010A80008E12A28D8A05BEF08F05DEF08F06AEFA6
:1010B80008F0000E2B6E2A68000E196E000E1A6ECC
:1010C800000E1B6E000E1C6E6AEF08F02BBE77EF49
:1010D80008F02B5006E12A04D8B075EF08F077EF36
:1010E80008F087EF08F0000E2B6E000E2A6E000E37
:1010F800196E000E1A6E000E1B6E000E1C6E000E8E
:10110800296E87EF08F02AC030F030A08EEF08F083
:1011180090EF08F093EF08F01B8E96EF08F01B9EF7
:1011280096EF08F0D89030301C6E29501C1219C068
:1011380019F01AC01AF01BC01BF01CC01CF0A5EF58
:1011480008F012000600D9CF07F0DACF08F0F3CF85
:1011580009F0F4CF0AF09EACB4EF08F0B6EF08F04F
:101168002EEF09F09E9CC280D8905C34D96E5D3415
:10117800DA6E800ED926000EDA22C3CFDEFFC4CF86
:10118800DDFF5DBED3EF08F05D5007E1080E5C5C43
:10119800D8B0D1EF08F0D3EF08F0DBEF08F0010E7C
:1011A8005C245C6E000E5D205D6EE1EF08F0000EC1
:1011B8005D6E000E5C6EE1EF08F00001CC05CD110C
:1011C800D8A4E9EF08F0EBEF08F0FDEF08F0C3CF83
:1011D80056F0C4CF57F0C250C30B0409C26E000EBC
:1011E800CD6F000ECC6F000E516E010E506E3EEFAB
:1011F80009F050045110D8A404EF09F006EF09F0E3
:1012080018EF09F0C3CF54F0C4CF55F0C250C30B48
:101218000809C26E000E516E000E506E000E9F6FD0
:10122800010E9E6F3EEF09F0C3CF52F0C4CF53F0CA
:10123800C294C296C298C29A000E9F6F000E9E6F0B
:10124800000ECD6F010ECC6F3EEF09F03EEF09F0B6
:101258003EEF09F0A1A033EF09F035EF09F03EEFBA
:1012680009F0A1907A0EBC6E120EBB6E3EEF09F02B
:101278003EEF09F0A1A243EF09F045EF09F07AEF3C
:1012880009F0A1920B0EB36EDB0EB26E5E4A5F2AB6
:10129800040E5E185F10D8A454EF09F056EF09F059
:1012A8007AEF09F0000E5F6E000E5E6E020E3C24AF
:1012B8003C6E000E3D203D6E3DBE6CEF09F03D508A
:1012C80009E10A0E3C5CD8A06CEF09F06EEF09F05A
:1012D80074EF09F0000E3D6E0A0E3C6E74EF09F0D3
:1012E800584A592A7AEF09F07AEF09F0020E58188D
:1012F8005910D8A482EF09F084EF09F09CEF09F0A7
:10130800000E596E000E586E4EC001F04FC002F02C
:10131800000E046E0F0E036EF6EC0DF001C05AF0CD
:1013280002C05BF0000E4F6E000E4E6E9CEF09F08F
:10133800F2A4A1EF09F0A3EF09F0E1EF09F0F294AC
:101348008B768BA6AAEF09F0ACEF09F0B2EF09F0A3
:10135800FE0ED76EEE0ED66EE1EF09F08BB6B7EF44
:1013680009F0B9EF09F0E1EF09F03E043F10D8A405
:10137800C0EF09F0C2EF09F0C8EF09F0F80ED76E18
:101388005E0ED66EE1EF09F03E503F10D8A4CFEFC5
:1013980009F0D1EF09F0E1EF09F0FE0ED76EEE0E7D
:1013A800D66EE1EF09F0E1EF09F0E1EF09F0E1EFC6
:1013B80009F0E1EF09F0E1EF09F00AC0F4FF09C014
:1013C800F3FF08C0DAFF07C0D9FF66921100136E59
:1013D8001350D8B4F2EF09F0F4EF09F016EF0AF061
:1013E8000EBEFBEF09F0F9EF09F016EF0AF00BC09B
:1013F8000FF00CC010F00DC011F00EC012F00F1E4F
:10140800101E111E121E0F2A000E10221122122267
:101418000FC015F010C016F011C017F012C018F068
:1014280020EF0AF00BC015F00CC016F00DC017F035
:101438000EC018F020EF0AF00B500C100D100E1013
:10144800D8A429EF0AF02BEF0AF037EF0AF0000EC4
:101458000B6E000E0C6E000E0D6E000E0E6ED8EFA9
:101468000AF0D8EF0AF0960E146E43EF0AF0142A29
:10147800D890183217321632153243EF0AF0000EA0
:1014880015140F6E000E1614106E000E1714116E40
:10149800FE0E1814126E0F50101011101210D8A44E
:1014A80058EF0AF05AEF0AF03BEF0AF06AEF0AF039
:1014B8006AEF0AF0142A010E1526000E16221722CA
:1014C8001822D8901832173216321532000E151419
:1014D8000F6E000E1614106E000E1714116EFF0E0C
:1014E8001814126E0F50101011101210D8A47FEF9C
:1014F8000AF081EF0AF05EEF0AF08DEF0AF08DEF47
:101508000AF01406D89015361636173618368DEFA9
:101518000AF017BE92EF0AF094EF0AF09EEF0AF075
:10152800020E14609AEF0AF09CEF0AF085EF0AF0B9
:101538009EEF0AF014B0A3EF0AF0A5EF0AF0A8EFA7
:101548000AF0179EA8EF0AF0D890143214C00FF0D2
:10155800106A116A126A0FC012F0116A106A0F6AD3
:101568000F5015121050161211501712125018124F
:101578001350D8B4C2EF0AF0C4EF0AF0CEEF0AF065
:101588000EBECBEF0AF0C9EF0AF0CEEF0AF0188EC4
:10159800CEEF0AF015C00BF016C00CF017C00DF016
:1015A80018C00EF0D8EF0AF0120020EEB8F010EED6
:1015B80018F0130EDBCFE3FFE806FCE213C00BF0D4
:1015C80014C00CF0000E0E6E0A0E0D6ECDEC0CF071
:1015D8000BC02CF00CC02DF013C00BF014C00CF095
:1015E800000E0E6E0A0E0D6E57EC0CF00BC034F0A8
:1015F8000CC035F034C00BF035C00CF0000E0E6E88
:101608000A0E0D6ECDEC0CF00BC02EF00CC02FF0B6
:1016180034C00BF035C00CF0000E0E6E0A0E0D6EC5
:1016280057EC0CF00BC036F00CC037F036C00BF09E
:1016380037C00CF0000E0E6E0A0E0D6ECDEC0CF0DD
:101648000BC030F00CC031F036C00BF037C00CF0D6
:10165800000E0E6E0A0E0D6E57EC0CF00BC038F033
:101668000CC039F038C00BF039C00CF0000E0E6E0B
:101678000A0E0D6ECDEC0CF00BC032F00CC033F03E
:1016880038C00BF039C00CF0000E0E6E0A0E0D6E4D
:1016980057EC0CF00BC016F00CC017F0D890323491
:1016A800D96E3334DA6E180ED926000EDA22DF50DE
:1016B8008C6E808E030E156E980EE82EFED7152EB2
:1016C800FCD7809ED8903034D96E3134DA6E180E3B
:1016D800D926000EDA22DF508C6E808C030E156E30
:1016E800980EE82EFED7152EFCD7809CD8902E3465
:1016F800D96E2F34DA6E180ED926000EDA22DF5092
:101708008C6E8280030E156E980EE82EFED7152E6D
:10171800FCD78290D8902C34D96E2D34DA6E180EFE
:10172800D926000EDA22DF508C6E8282030E156EE7
:10173800980EE82EFED7152EFCD782921200000EC6
:101748000B14136E000E0C14146E800E0D14156E0F
:101758007F0E0E14166E1350141015101610D8A400
:10176800B8EF0BF0BAEF0BF0C4EF0BF0000E0B6EF6
:10177800000E0C6E000E0D6E000E0E6EC4EF0BF018
:10178800000E0F14136E000E1014146E800E111438
:10179800156E7F0E1214166E1350141015101610B5
:1017A800D8A4D9EF0BF0DBEF0BF0E5EF0BF0000E50
:1017B8000F6E000E106E000E116E000E126EE5EF29
:1017C8000BF00EAEEAEF0BF0ECEF0BF00BEF0CF0BA
:1017D8000BC013F00CC014F00DC015F00EC016F0BD
:1017E800131E141E151E161E132A000E142215226F
:1017F8001622000E13240B6E000E14200C6E000E21
:1018080015200D6E800E16200E6E0BEF0CF012AE2A
:1018180010EF0CF012EF0CF02FEF0CF00FC013F0DC
:1018280010C014F011C015F012C016F0131E141ECB
:10183800151E161E132A000E142215221622000E3B
:1018480013240F6E000E1420106E000E1520116E5A
:10185800800E1620126E000E0B1A000E0C1A000EC7
:101868000D1A800E0E1A000E0F1A000E101A000E16
:10187800111A800E121A0F500B5C10500C58115090
:101888000D5812500E58D8B04CEF0CF04EEF0CF02B
:1018980051EF0CF0D89056EF0CF0D88056EF0CF0C2
:1018A80056EF0CF01200000E106E0EBE60EF0CF03A
:1018B8005EEF0CF068EF0CF00D6C0E1ED8B00E2A1F
:1018C800010E106E68EF0CF00CBE6FEF0CF06DEFB0
:1018D8000CF077EF0CF00B6C0C1ED8B00C2A010E34
:1018E800101A77EF0CF0000E126E000E116E0D50EC
:1018F8000E10D8B482EF0CF084EF0CF0B8EF0CF0B7
:10190800010E0F6E8EEF0CF0D8900D360E360F2AA2
:101918008EEF0CF00EAE93EF0CF095EF0CF088EF15
:101928000CF099EF0CF099EF0CF0D89011361236B4
:101938000D500B5C0E500C58D8A0A5EF0CF0A7EF7B
:101948000CF0AEEF0CF00D500B5E0E500C5A1180DF
:10195800AEEF0CF0D8900E320D320F2E99EF0CF03E
:10196800B8EF0CF0B8EF0CF01050D8B4BEEF0CF094
:10197800C0EF0CF0C6EF0CF0116C121ED8B0122A92
:10198800C6EF0CF011C00BF012C00CF0CCEF0CF04D
:101998001200000E106E0CBED6EF0CF0D4EF0CF057
:1019A800DEEF0CF00B6C0C1ED8B00C2A010E106E7A
:1019B800DEEF0CF00EBEE5EF0CF0E3EF0CF0EBEF12
:1019C8000CF00D6C0E1ED8B00E2AEBEF0CF00D507B
:1019D8000E10D8B4F2EF0CF0F4EF0CF024EF0DF089
:1019E800010E0F6EFEEF0CF0D8900D360E360F2A52
:1019F800FEEF0CF00EAE03EF0DF005EF0DF0F8EF73
:101A08000CF009EF0DF009EF0DF00D500B5C0E50C6
:101A18000C58D8A012EF0DF014EF0DF01AEF0DF0DE
:101A28000D500B5E0E500C5A1AEF0DF0D8900E3276
:101A38000D320F2E09EF0DF024EF0DF024EF0DF00D
:101A48001050D8B42AEF0DF02CEF0DF032EF0DF056
:101A58000B6C0C1ED8B00C2A32EF0DF00BC00BF03B
:101A68000CC00CF038EF0DF012000B500C10D8A47D
:101A780040EF0DF042EF0DF04DEF0DF0000E616EEE
:101A8800000E606EB180B18CB186B18EA09271EFFC
:101A98000DF00B040C10D8A454EF0DF056EF0DF018
:101AA80071EF0DF0000EB16E9D9C000E616E010E7F
:101AB800606EB18EB18AB188B192B180A282A192D2
:101AC800A0820B0EB36EDB0EB26E000E5F6E000EC0
:101AD8005E6E71EF0DF071EF0DF012000BC00FF09C
:101AE8000CC010F0103410300D6E0F300F6E0DC09A
:101AF80010F00FB002D0BD9A01D0BD8A0BC00FF014
:101B08000CC010F00FB002D0BD9801D0BD880BC03A
:101B18000DF00CC00EF0D8900E320D32D8900E3267
:101B28000D320D50BE6E1200620EF66E1C0EF76E70
:101B3800000EF86E00EEB8F010EE14F00900F5CFC4
:101B4800EEFFE550E150FAE100EE80F0200EEE6A7B
:101B5800E806FDE100EE3CF0260EEE6AE806FDE13F
:101B680066906692000109EF00F00B040C10D8A4EF
:101B7800C0EF0DF0C2EF0DF0C9EF0DF0D58EFF0EDE
:101B8800D76EFE0ED66ED8EF0DF00B500C10D8A401
:101B9800D0EF0DF0D2EF0DF0D8EF0DF08B96D59E6B
:101BA800D8EF0DF0D8EF0DF01200D38CD39AD3886C
:101BB800C19AC198C150F00B0C09C16EC294C2966B
:101BC800C298C29A9684C08EC050C70B0809C06ECE
:101BD800C080C082C084C2809D8C9F8CF28EF28CA3
:101BE800D08E120001500302F3CF05F0F4CF06F0B7
:101BF80001500402F350062602500302F350062651
:101C080005C001F006C002F00AEF0EF01200D59CE4
:101C1800D596D584D582D580D59AFF0ED76EFE0E7F
:101C2800D66E9F80F294F28AD08EF28E1200929E27
:101C3800929C9490949282908292000E956E000EDF
:101C48008C6E1200BA86BA94BA82BA807A0EBC6ECA
:101C5800120EBB6EA080A2801200C000F900A40082
:101C6800B000990092008200D80080009000BD90DA
:101C7800BD92BD84BD86CA849494CA90CA8212005B
:101C88008A8A030EE82EFED700F08A9A12000BC04B
:041C9800CBFF12006C
:020000040020DA
:08000000FFFFFFFFFFFFFFFF00
:020000040030CA
:0E000000FF081B1EFF8381FF0FC00FE00F40A3
:00000001FF
